{
  "address": "0x9eE18F9745f60e1d2036486691fCA5F5f64b7Dda",
  "abi": [
    {
      "inputs": [
        {
          "internalType": "uint256",
          "name": "startTime_",
          "type": "uint256"
        },
        {
          "internalType": "uint256",
          "name": "endTime_",
          "type": "uint256"
        }
      ],
      "stateMutability": "nonpayable",
      "type": "constructor"
    },
    {
      "anonymous": false,
      "inputs": [
        {
          "indexed": true,
          "internalType": "address",
          "name": "owner",
          "type": "address"
        },
        {
          "indexed": true,
          "internalType": "address",
          "name": "approved",
          "type": "address"
        },
        {
          "indexed": true,
          "internalType": "uint256",
          "name": "tokenId",
          "type": "uint256"
        }
      ],
      "name": "Approval",
      "type": "event"
    },
    {
      "anonymous": false,
      "inputs": [
        {
          "indexed": true,
          "internalType": "address",
          "name": "owner",
          "type": "address"
        },
        {
          "indexed": true,
          "internalType": "address",
          "name": "operator",
          "type": "address"
        },
        {
          "indexed": false,
          "internalType": "bool",
          "name": "approved",
          "type": "bool"
        }
      ],
      "name": "ApprovalForAll",
      "type": "event"
    },
    {
      "anonymous": false,
      "inputs": [
        {
          "indexed": true,
          "internalType": "address",
          "name": "from",
          "type": "address"
        },
        {
          "indexed": true,
          "internalType": "address",
          "name": "to",
          "type": "address"
        },
        {
          "indexed": true,
          "internalType": "uint256",
          "name": "tokenId",
          "type": "uint256"
        }
      ],
      "name": "Transfer",
      "type": "event"
    },
    {
      "inputs": [
        {
          "internalType": "address",
          "name": "to",
          "type": "address"
        },
        {
          "internalType": "uint256",
          "name": "tokenId",
          "type": "uint256"
        }
      ],
      "name": "approve",
      "outputs": [],
      "stateMutability": "nonpayable",
      "type": "function"
    },
    {
      "inputs": [
        {
          "internalType": "address",
          "name": "owner",
          "type": "address"
        }
      ],
      "name": "balanceOf",
      "outputs": [
        {
          "internalType": "uint256",
          "name": "",
          "type": "uint256"
        }
      ],
      "stateMutability": "view",
      "type": "function"
    },
    {
      "inputs": [],
      "name": "democracyToken",
      "outputs": [
        {
          "internalType": "contract IDemocracyToken",
          "name": "",
          "type": "address"
        }
      ],
      "stateMutability": "view",
      "type": "function"
    },
    {
      "inputs": [],
      "name": "endTime",
      "outputs": [
        {
          "internalType": "uint256",
          "name": "",
          "type": "uint256"
        }
      ],
      "stateMutability": "view",
      "type": "function"
    },
    {
      "inputs": [],
      "name": "feePayer",
      "outputs": [
        {
          "internalType": "address",
          "name": "",
          "type": "address"
        }
      ],
      "stateMutability": "view",
      "type": "function"
    },
    {
      "inputs": [
        {
          "internalType": "uint256",
          "name": "tokenId",
          "type": "uint256"
        }
      ],
      "name": "getApproved",
      "outputs": [
        {
          "internalType": "address",
          "name": "",
          "type": "address"
        }
      ],
      "stateMutability": "view",
      "type": "function"
    },
    {
      "inputs": [
        {
          "internalType": "address",
          "name": "owner",
          "type": "address"
        },
        {
          "internalType": "address",
          "name": "operator",
          "type": "address"
        }
      ],
      "name": "isApprovedForAll",
      "outputs": [
        {
          "internalType": "bool",
          "name": "",
          "type": "bool"
        }
      ],
      "stateMutability": "view",
      "type": "function"
    },
    {
      "inputs": [
        {
          "internalType": "string",
          "name": "tokenURI_",
          "type": "string"
        }
      ],
      "name": "mint",
      "outputs": [],
      "stateMutability": "nonpayable",
      "type": "function"
    },
    {
      "inputs": [
        {
          "internalType": "string",
          "name": "tokenURI_",
          "type": "string"
        }
      ],
      "name": "mintDemocracySpiritNFT",
      "outputs": [],
      "stateMutability": "nonpayable",
      "type": "function"
    },
    {
      "inputs": [
        {
          "internalType": "string",
          "name": "tokenURI_",
          "type": "string"
        },
        {
          "internalType": "address",
          "name": "to_",
          "type": "address"
        }
      ],
      "name": "mintTo",
      "outputs": [],
      "stateMutability": "nonpayable",
      "type": "function"
    },
    {
      "inputs": [],
      "name": "name",
      "outputs": [
        {
          "internalType": "string",
          "name": "",
          "type": "string"
        }
      ],
      "stateMutability": "view",
      "type": "function"
    },
    {
      "inputs": [
        {
          "internalType": "uint256",
          "name": "tokenId",
          "type": "uint256"
        }
      ],
      "name": "ownerOf",
      "outputs": [
        {
          "internalType": "address",
          "name": "",
          "type": "address"
        }
      ],
      "stateMutability": "view",
      "type": "function"
    },
    {
      "inputs": [
        {
          "internalType": "address",
          "name": "from",
          "type": "address"
        },
        {
          "internalType": "address",
          "name": "to",
          "type": "address"
        },
        {
          "internalType": "uint256",
          "name": "tokenId",
          "type": "uint256"
        }
      ],
      "name": "safeTransferFrom",
      "outputs": [],
      "stateMutability": "nonpayable",
      "type": "function"
    },
    {
      "inputs": [
        {
          "internalType": "address",
          "name": "from",
          "type": "address"
        },
        {
          "internalType": "address",
          "name": "to",
          "type": "address"
        },
        {
          "internalType": "uint256",
          "name": "tokenId",
          "type": "uint256"
        },
        {
          "internalType": "bytes",
          "name": "_data",
          "type": "bytes"
        }
      ],
      "name": "safeTransferFrom",
      "outputs": [],
      "stateMutability": "nonpayable",
      "type": "function"
    },
    {
      "inputs": [
        {
          "internalType": "address",
          "name": "operator",
          "type": "address"
        },
        {
          "internalType": "bool",
          "name": "approved",
          "type": "bool"
        }
      ],
      "name": "setApprovalForAll",
      "outputs": [],
      "stateMutability": "nonpayable",
      "type": "function"
    },
    {
      "inputs": [],
      "name": "startTime",
      "outputs": [
        {
          "internalType": "uint256",
          "name": "",
          "type": "uint256"
        }
      ],
      "stateMutability": "view",
      "type": "function"
    },
    {
      "inputs": [
        {
          "internalType": "bytes4",
          "name": "interfaceId",
          "type": "bytes4"
        }
      ],
      "name": "supportsInterface",
      "outputs": [
        {
          "internalType": "bool",
          "name": "",
          "type": "bool"
        }
      ],
      "stateMutability": "view",
      "type": "function"
    },
    {
      "inputs": [],
      "name": "symbol",
      "outputs": [
        {
          "internalType": "string",
          "name": "",
          "type": "string"
        }
      ],
      "stateMutability": "view",
      "type": "function"
    },
    {
      "inputs": [
        {
          "internalType": "uint256",
          "name": "tokenId",
          "type": "uint256"
        }
      ],
      "name": "tokenURI",
      "outputs": [
        {
          "internalType": "string",
          "name": "",
          "type": "string"
        }
      ],
      "stateMutability": "view",
      "type": "function"
    },
    {
      "inputs": [],
      "name": "totalSupply",
      "outputs": [
        {
          "internalType": "uint256",
          "name": "",
          "type": "uint256"
        }
      ],
      "stateMutability": "view",
      "type": "function"
    },
    {
      "inputs": [
        {
          "internalType": "address",
          "name": "from",
          "type": "address"
        },
        {
          "internalType": "address",
          "name": "to",
          "type": "address"
        },
        {
          "internalType": "uint256",
          "name": "tokenId",
          "type": "uint256"
        }
      ],
      "name": "transferFrom",
      "outputs": [],
      "stateMutability": "nonpayable",
      "type": "function"
    },
    {
      "stateMutability": "payable",
      "type": "receive"
    }
  ],
  "transactionHash": "0xbab059f42196de42f643c682984a0fb702c51479845606e162d6d3e7197a6e12",
  "args": [
    "1639785600",
    "1639929600"
  ],
  "solcInputHash": "83570c971eff7cae0cb95f4a28c3d1f6",
  "bytecode": "0x60806040523480156200001157600080fd5b5060405162002ea538038062002ea58339810160408190526200003491620001dc565b604080518082018252600a8152695265666572656e64756d60b01b6020808301918252835180850190945260048452631493919560e21b908401528151919291620000829160009162000128565b5080516200009890600190602084019062000128565b5050506009829055600a819055604051620000b390620001b7565b604051809103906000f080158015620000d0573d6000803e3d6000fd5b50600b80546001600160a01b0319166001600160a01b0392909216919091179055620000fb62000124565b600780546001600160a01b0319166001600160a01b0392909216919091179055506200023d9050565b3390565b828054620001369062000200565b90600052602060002090601f0160209004810192826200015a5760008555620001a5565b82601f106200017557805160ff1916838001178555620001a5565b82800160010185558215620001a5579182015b82811115620001a557825182559160200191906001019062000188565b50620001b3929150620001c5565b5090565b610d38806200216d83390190565b5b80821115620001b35760008155600101620001c6565b60008060408385031215620001ef578182fd5b505080516020909101519092909150565b6002810460018216806200021557607f821691505b602082108114156200023757634e487b7160e01b600052602260045260246000fd5b50919050565b611f20806200024d6000396000f3fe60806040526004361061010e5760003560e01c806370f92ec61161009b57806370f92ec6146102f75780637148ccfd1461030c57806378e979251461032c57806395d89b4114610341578063a22cb46514610356578063b88d4fde14610376578063c87b56dd14610396578063d85d3d27146103b6578063dd87acce146103d6578063e985e9c5146103eb578063fe42a2d91461040b57610194565b806301ffc9a71461019957806306fdde03146101cf578063081812fc146101f1578063095ea7b31461021e57806318160ddd1461024057806323b872dd146102625780633197cbb61461028257806342842e0e146102975780636352211e146102b757806370a08231146102d757610194565b3661019457600754610129906001600160a01b03163461042b565b600b546001600160a01b03166340c10f196101426104d5565b346040518363ffffffff1660e01b815260040161016092919061179f565b600060405180830381600087803b15801561017a57600080fd5b505af115801561018e573d6000803e3d6000fd5b50505050005b600080fd5b3480156101a557600080fd5b506101b96101b4366004611610565b6104d9565b6040516101c691906117b8565b60405180910390f35b3480156101db57600080fd5b506101e4610521565b6040516101c691906117c3565b3480156101fd57600080fd5b5061021161020c3660046116d8565b6105b3565b6040516101c6919061174e565b34801561022a57600080fd5b5061023e6102393660046115e7565b6105f6565b005b34801561024c57600080fd5b50610255610689565b6040516101c69190611dad565b34801561026e57600080fd5b5061023e61027d3660046114a7565b61068f565b34801561028e57600080fd5b506102556106c7565b3480156102a357600080fd5b5061023e6102b23660046114a7565b6106cd565b3480156102c357600080fd5b506102116102d23660046116d8565b6106e8565b3480156102e357600080fd5b506102556102f236600461145b565b61071d565b34801561030357600080fd5b50610211610761565b34801561031857600080fd5b5061023e610327366004611648565b610770565b34801561033857600080fd5b50610255610858565b34801561034d57600080fd5b506101e461085e565b34801561036257600080fd5b5061023e6103713660046115ad565b61086d565b34801561038257600080fd5b5061023e6103913660046114e2565b61087f565b3480156103a257600080fd5b506101e46103b13660046116d8565b6108be565b3480156103c257600080fd5b5061023e6103d1366004611648565b6109df565b3480156103e257600080fd5b50610211610a61565b3480156103f757600080fd5b506101b9610406366004611475565b610a70565b34801561041757600080fd5b5061023e610426366004611687565b610a9e565b804710156104545760405162461bcd60e51b815260040161044b90611958565b60405180910390fd5b6000826001600160a01b03168260405161046d9061174b565b60006040518083038185875af1925050503d80600081146104aa576040519150601f19603f3d011682016040523d82523d6000602084013e6104af565b606091505b50509050806104d05760405162461bcd60e51b815260040161044b906118fe565b505050565b3390565b60006001600160e01b031982166380ac58cd60e01b148061050a57506001600160e01b03198216635b5e139f60e01b145b80610519575061051982610c01565b90505b919050565b60606000805461053090611e25565b80601f016020809104026020016040519081016040528092919081815260200182805461055c90611e25565b80156105a95780601f1061057e576101008083540402835291602001916105a9565b820191906000526020600020905b81548152906001019060200180831161058c57829003601f168201915b5050505050905090565b60006105be82610c1a565b6105da5760405162461bcd60e51b815260040161044b90611b9a565b506000908152600460205260409020546001600160a01b031690565b6000610601826106e8565b9050806001600160a01b0316836001600160a01b031614156106355760405162461bcd60e51b815260040161044b90611ca6565b806001600160a01b03166106476104d5565b6001600160a01b031614806106635750610663816104066104d5565b61067f5760405162461bcd60e51b815260040161044b906119db565b6104d08383610c37565b60085481565b6106a061069a6104d5565b82610ca5565b6106bc5760405162461bcd60e51b815260040161044b90611ce7565b6104d0838383610d22565b600a5481565b6104d08383836040518060200160405280600081525061087f565b6000818152600260205260408120546001600160a01b0316806105195760405162461bcd60e51b815260040161044b90611a7d565b60006001600160a01b0382166107455760405162461bcd60e51b815260040161044b90611a33565b506001600160a01b031660009081526003602052604090205490565b6007546001600160a01b031681565b6107786104d5565b6007546001600160a01b039081169116146107a55760405162461bcd60e51b815260040161044b90611be6565b600a544210156107c75760405162461bcd60e51b815260040161044b90611d7d565b600b54600160a01b900460ff16156107f15760405162461bcd60e51b815260040161044b906117d6565b600b805460ff60a01b1916600160a01b179055600854610812903090610e4f565b61085460085483838080601f016020809104026020016040519081016040528093929190818152602001838380828437600092019190915250610f2e92505050565b5050565b60095481565b60606001805461053090611e25565b6108546108786104d5565b8383610f72565b61089061088a6104d5565b83610ca5565b6108ac5760405162461bcd60e51b815260040161044b90611ce7565b6108b884848484611015565b50505050565b60606108c982610c1a565b6108e55760405162461bcd60e51b815260040161044b90611b49565b600082815260066020526040812080546108fe90611e25565b80601f016020809104026020016040519081016040528092919081815260200182805461092a90611e25565b80156109775780601f1061094c57610100808354040283529160200191610977565b820191906000526020600020905b81548152906001019060200180831161095a57829003601f168201915b505050505090506000610988611048565b905080516000141561099c5750905061051c565b8151156109ce5780826040516020016109b692919061171c565b6040516020818303038152906040529250505061051c565b6109d78461105a565b949350505050565b6109ec82826104266104d5565b600b546001600160a01b03166340c10f19610a056104d5565b670de0b6b3a76400006040518363ffffffff1660e01b8152600401610a2b92919061179f565b600060405180830381600087803b158015610a4557600080fd5b505af1158015610a59573d6000803e3d6000fd5b505050505050565b600b546001600160a01b031681565b6001600160a01b03918216600090815260056020908152604080832093909416825291909152205460ff1690565b6009544210158015610ab25750600a544211155b610ace5760405162461bcd60e51b815260040161044b90611d38565b6001600160a01b0381166000908152600c602052604090205460ff1615610b075760405162461bcd60e51b815260040161044b906117d6565b6001600160a01b0381166000908152600c60205260409020805460ff19166001179055600854610b389082906110dd565b610b7a60085484848080601f016020809104026020016040519081016040528093929190818152602001838380828437600092019190915250610f2e92505050565b600b546040516340c10f1960e01b81526001600160a01b03909116906340c10f1990610bb4908490670de0b6b3a76400009060040161179f565b600060405180830381600087803b158015610bce57600080fd5b505af1158015610be2573d6000803e3d6000fd5b505060088054925090506000610bf783611e60565b9190505550505050565b6001600160e01b031981166301ffc9a760e01b14919050565b6000908152600260205260409020546001600160a01b0316151590565b600081815260046020526040902080546001600160a01b0319166001600160a01b0384169081179091558190610c6c826106e8565b6001600160a01b03167f8c5be1e5ebec7d5bd14f71427d1e84f3dd0314c0f7b2291e5b200ac8c7c3b92560405160405180910390a45050565b6000610cb082610c1a565b610ccc5760405162461bcd60e51b815260040161044b9061198f565b6000610cd7836106e8565b9050806001600160a01b0316846001600160a01b03161480610d125750836001600160a01b0316610d07846105b3565b6001600160a01b0316145b806109d757506109d78185610a70565b826001600160a01b0316610d35826106e8565b6001600160a01b031614610d5b5760405162461bcd60e51b815260040161044b90611c0e565b6001600160a01b038216610d815760405162461bcd60e51b815260040161044b90611887565b610d8c8383836104d0565b610d97600082610c37565b6001600160a01b0383166000908152600360205260408120805460019290610dc0908490611de2565b90915550506001600160a01b0382166000908152600360205260408120805460019290610dee908490611db6565b909155505060008181526002602052604080822080546001600160a01b0319166001600160a01b0386811691821790925591518493918716917fddf252ad1be2c89b69c2b068fc378daa952ba7f163c4a11628f55a4df523b3ef91a4505050565b6001600160a01b038216610e755760405162461bcd60e51b815260040161044b90611b14565b610e7e81610c1a565b15610e9b5760405162461bcd60e51b815260040161044b90611850565b610ea7600083836104d0565b6001600160a01b0382166000908152600360205260408120805460019290610ed0908490611db6565b909155505060008181526002602052604080822080546001600160a01b0319166001600160a01b03861690811790915590518392907fddf252ad1be2c89b69c2b068fc378daa952ba7f163c4a11628f55a4df523b3ef908290a45050565b610f3782610c1a565b610f535760405162461bcd60e51b815260040161044b90611ac6565b600082815260066020908152604090912082516104d092840190611365565b816001600160a01b0316836001600160a01b03161415610fa45760405162461bcd60e51b815260040161044b906118cb565b6001600160a01b0383811660008181526005602090815260408083209487168084529490915290819020805460ff1916851515179055517f17307eab39ab6107e8899845ad3d59bd9653f200f220920489ca2b5937696c31906110089085906117b8565b60405180910390a3505050565b611020848484610d22565b61102c848484846110f7565b6108b85760405162461bcd60e51b815260040161044b906117fe565b60408051602081019091526000815290565b606061106582610c1a565b6110815760405162461bcd60e51b815260040161044b90611c57565b600061108b611048565b905060008151116110ab57604051806020016040528060008152506110d6565b806110b584611212565b6040516020016110c692919061171c565b6040516020818303038152906040525b9392505050565b61085482826040518060200160405280600081525061132c565b600061110b846001600160a01b031661135f565b1561120757836001600160a01b031663150b7a026111276104d5565b8786866040518563ffffffff1660e01b81526004016111499493929190611762565b602060405180830381600087803b15801561116357600080fd5b505af1925050508015611193575060408051601f3d908101601f191682019092526111909181019061162c565b60015b6111ed573d8080156111c1576040519150601f19603f3d011682016040523d82523d6000602084013e6111c6565b606091505b5080516111e55760405162461bcd60e51b815260040161044b906117fe565b805181602001fd5b6001600160e01b031916630a85bd0160e11b1490506109d7565b506001949350505050565b60608161123757506040805180820190915260018152600360fc1b602082015261051c565b8160005b8115611261578061124b81611e60565b915061125a9050600a83611dce565b915061123b565b6000816001600160401b0381111561128957634e487b7160e01b600052604160045260246000fd5b6040519080825280601f01601f1916602001820160405280156112b3576020820181803683370190505b5090505b84156109d7576112c8600183611de2565b91506112d5600a86611e7b565b6112e0906030611db6565b60f81b81838151811061130357634e487b7160e01b600052603260045260246000fd5b60200101906001600160f81b031916908160001a905350611325600a86611dce565b94506112b7565b6113368383610e4f565b61134360008484846110f7565b6104d05760405162461bcd60e51b815260040161044b906117fe565b3b151590565b82805461137190611e25565b90600052602060002090601f01602090048101928261139357600085556113d9565b82601f106113ac57805160ff19168380011785556113d9565b828001600101855582156113d9579182015b828111156113d95782518255916020019190600101906113be565b506113e59291506113e9565b5090565b5b808211156113e557600081556001016113ea565b80356001600160a01b038116811461051c57600080fd5b60008083601f840112611426578182fd5b5081356001600160401b0381111561143c578182fd5b60208301915083602082850101111561145457600080fd5b9250929050565b60006020828403121561146c578081fd5b6110d6826113fe565b60008060408385031215611487578081fd5b611490836113fe565b915061149e602084016113fe565b90509250929050565b6000806000606084860312156114bb578081fd5b6114c4846113fe565b92506114d2602085016113fe565b9150604084013590509250925092565b600080600080608085870312156114f7578081fd5b611500856113fe565b9350602061150f8187016113fe565b93506040860135925060608601356001600160401b0380821115611531578384fd5b818801915088601f830112611544578384fd5b81358181111561155657611556611ebb565b604051601f8201601f191681018501838111828210171561157957611579611ebb565b60405281815283820185018b101561158f578586fd5b81858501868301379081019093019390935250939692955090935050565b600080604083850312156115bf578182fd5b6115c8836113fe565b9150602083013580151581146115dc578182fd5b809150509250929050565b600080604083850312156115f9578182fd5b611602836113fe565b946020939093013593505050565b600060208284031215611621578081fd5b81356110d681611ed1565b60006020828403121561163d578081fd5b81516110d681611ed1565b6000806020838503121561165a578182fd5b82356001600160401b0381111561166f578283fd5b61167b85828601611415565b90969095509350505050565b60008060006040848603121561169b578283fd5b83356001600160401b038111156116b0578384fd5b6116bc86828701611415565b90945092506116cf9050602085016113fe565b90509250925092565b6000602082840312156116e9578081fd5b5035919050565b60008151808452611708816020860160208601611df9565b601f01601f19169290920160200192915050565b6000835161172e818460208801611df9565b835190830190611742818360208801611df9565b01949350505050565b90565b6001600160a01b0391909116815260200190565b6001600160a01b0385811682528416602082015260408101839052608060608201819052600090611795908301846116f0565b9695505050505050565b6001600160a01b03929092168252602082015260400190565b901515815260200190565b6000602082526110d660208301846116f0565b6020808252600e908201526d105b1c9958591e481b5a5b9d195960921b604082015260600190565b60208082526032908201527f4552433732313a207472616e7366657220746f206e6f6e20455243373231526560408201527131b2b4bb32b91034b6b83632b6b2b73a32b960711b606082015260800190565b6020808252601c908201527f4552433732313a20746f6b656e20616c7265616479206d696e74656400000000604082015260600190565b60208082526024908201527f4552433732313a207472616e7366657220746f20746865207a65726f206164646040820152637265737360e01b606082015260800190565b60208082526019908201527822a9219b99189d1030b8383937bb32903a379031b0b63632b960391b604082015260600190565b6020808252603a908201527f416464726573733a20756e61626c6520746f2073656e642076616c75652c20726040820152791958da5c1a595b9d081b585e481a185d99481c995d995c9d195960321b606082015260800190565b6020808252601d908201527f416464726573733a20696e73756666696369656e742062616c616e6365000000604082015260600190565b6020808252602c908201527f4552433732313a206f70657261746f7220717565727920666f72206e6f6e657860408201526b34b9ba32b73a103a37b5b2b760a11b606082015260800190565b60208082526038908201527f4552433732313a20617070726f76652063616c6c6572206973206e6f74206f776040820152771b995c881b9bdc88185c1c1c9bdd995908199bdc88185b1b60421b606082015260800190565b6020808252602a908201527f4552433732313a2062616c616e636520717565727920666f7220746865207a65604082015269726f206164647265737360b01b606082015260800190565b60208082526029908201527f4552433732313a206f776e657220717565727920666f72206e6f6e657869737460408201526832b73a103a37b5b2b760b91b606082015260800190565b6020808252602e908201527f45524337323155524953746f726167653a2055524920736574206f66206e6f6e60408201526d32bc34b9ba32b73a103a37b5b2b760911b606082015260800190565b6020808252818101527f4552433732313a206d696e7420746f20746865207a65726f2061646472657373604082015260600190565b60208082526031908201527f45524337323155524953746f726167653a2055524920717565727920666f72206040820152703737b732bc34b9ba32b73a103a37b5b2b760791b606082015260800190565b6020808252602c908201527f4552433732313a20617070726f76656420717565727920666f72206e6f6e657860408201526b34b9ba32b73a103a37b5b2b760a11b606082015260800190565b6020808252600e908201526d27b7363c903332b2903830bcb2b960911b604082015260600190565b60208082526029908201527f4552433732313a207472616e73666572206f6620746f6b656e2074686174206960408201526839903737ba1037bbb760b91b606082015260800190565b6020808252602f908201527f4552433732314d657461646174613a2055524920717565727920666f72206e6f60408201526e3732bc34b9ba32b73a103a37b5b2b760891b606082015260800190565b60208082526021908201527f4552433732313a20617070726f76616c20746f2063757272656e74206f776e656040820152603960f91b606082015260800190565b60208082526031908201527f4552433732313a207472616e736665722063616c6c6572206973206e6f74206f6040820152701ddb995c881b9bdc88185c1c1c9bdd9959607a1b606082015260800190565b60208082526025908201527f4d696e742074696d65206861736e27742073746172746564206f722068617320604082015264195b99195960da1b606082015260800190565b602080825260169082015275135a5b9d081d1a5b59481a185cdb89dd08195b99195960521b604082015260600190565b90815260200190565b60008219821115611dc957611dc9611e8f565b500190565b600082611ddd57611ddd611ea5565b500490565b600082821015611df457611df4611e8f565b500390565b60005b83811015611e14578181015183820152602001611dfc565b838111156108b85750506000910152565b600281046001821680611e3957607f821691505b60208210811415611e5a57634e487b7160e01b600052602260045260246000fd5b50919050565b6000600019821415611e7457611e74611e8f565b5060010190565b600082611e8a57611e8a611ea5565b500690565b634e487b7160e01b600052601160045260246000fd5b634e487b7160e01b600052601260045260246000fd5b634e487b7160e01b600052604160045260246000fd5b6001600160e01b031981168114611ee757600080fd5b5056fea2646970667358221220fcf22c1ab8cc551b5aa2432dfa48aac1470cee1290a613428661a1ba429b5f9464736f6c6343000800003360806040523480156200001157600080fd5b506040518060400160405280600e81526020016d2232b6b7b1b930b1bcaa37b5b2b760911b81525060405180604001604052806003815260200162444f4d60e81b81525081600390805190602001906200006d929190620000bb565b50805162000083906004906020840190620000bb565b5062000091915050620000b7565b600580546001600160a01b0319166001600160a01b03929092169190911790556200019e565b3390565b828054620000c99062000161565b90600052602060002090601f016020900481019282620000ed576000855562000138565b82601f106200010857805160ff191683800117855562000138565b8280016001018555821562000138579182015b82811115620001385782518255916020019190600101906200011b565b50620001469291506200014a565b5090565b5b808211156200014657600081556001016200014b565b6002810460018216806200017657607f821691505b602082108114156200019857634e487b7160e01b600052602260045260246000fd5b50919050565b610b8a80620001ae6000396000f3fe608060405234801561001057600080fd5b50600436106100af5760003560e01c806306fdde03146100b4578063095ea7b3146100d257806318160ddd146100f257806323b872dd14610107578063313ce5671461011a578063395093511461012f57806340c10f191461014257806356e8771f1461015757806370a082311461016c57806395d89b411461017f578063a457c2d714610187578063a9059cbb1461019a578063dd62ed3e146101ad575b600080fd5b6100bc6101c0565b6040516100c9919061083c565b60405180910390f35b6100e56100e03660046107f4565b610252565b6040516100c99190610831565b6100fa61026f565b6040516100c99190610ade565b6100e56101153660046107b9565b610275565b61012261030e565b6040516100c99190610ae7565b6100e561013d3660046107f4565b610313565b6101556101503660046107f4565b610367565b005b61015f6103af565b6040516100c9919061081d565b6100fa61017a366004610766565b6103be565b6100bc6103dd565b6100e56101953660046107f4565b6103ec565b6100e56101a83660046107f4565b610465565b6100fa6101bb366004610787565b610479565b6060600380546101cf90610b19565b80601f01602080910402602001604051908101604052809291908181526020018280546101fb90610b19565b80156102485780601f1061021d57610100808354040283529160200191610248565b820191906000526020600020905b81548152906001019060200180831161022b57829003601f168201915b5050505050905090565b600061026661025f6104a4565b84846104a8565b50600192915050565b60025490565b600061028284848461055c565b6001600160a01b0384166000908152600160205260408120816102a36104a4565b6001600160a01b03166001600160a01b03168152602001908152602001600020549050828110156102ef5760405162461bcd60e51b81526004016102e690610991565b60405180910390fd5b610303856102fb6104a4565b8584036104a8565b506001949350505050565b601290565b60006102666103206104a4565b84846001600061032e6104a4565b6001600160a01b03908116825260208083019390935260409182016000908120918b16815292529020546103629190610af5565b6104a8565b6005546001600160a01b031661037b6104a4565b6001600160a01b0316146103a15760405162461bcd60e51b81526004016102e69061095a565b6103ab8282610686565b5050565b6005546001600160a01b031681565b6001600160a01b0381166000908152602081905260409020545b919050565b6060600480546101cf90610b19565b600080600160006103fb6104a4565b6001600160a01b03908116825260208083019390935260409182016000908120918816815292529020549050828110156104475760405162461bcd60e51b81526004016102e690610a62565b61045b6104526104a4565b858584036104a8565b5060019392505050565b60006102666104726104a4565b848461055c565b6001600160a01b03918216600090815260016020908152604080832093909416825291909152205490565b3390565b6001600160a01b0383166104ce5760405162461bcd60e51b81526004016102e690610a1e565b6001600160a01b0382166104f45760405162461bcd60e51b81526004016102e6906108d2565b6001600160a01b0380841660008181526001602090815260408083209487168084529490915290819020849055517f8c5be1e5ebec7d5bd14f71427d1e84f3dd0314c0f7b2291e5b200ac8c7c3b9259061054f908590610ade565b60405180910390a3505050565b6001600160a01b0383166105825760405162461bcd60e51b81526004016102e6906109d9565b6001600160a01b0382166105a85760405162461bcd60e51b81526004016102e69061088f565b6105b383838361074a565b6001600160a01b038316600090815260208190526040902054818110156105ec5760405162461bcd60e51b81526004016102e690610914565b6001600160a01b03808516600090815260208190526040808220858503905591851681529081208054849290610623908490610af5565b92505081905550826001600160a01b0316846001600160a01b03167fddf252ad1be2c89b69c2b068fc378daa952ba7f163c4a11628f55a4df523b3ef8460405161066d9190610ade565b60405180910390a361068084848461074a565b50505050565b6001600160a01b0382166106ac5760405162461bcd60e51b81526004016102e690610aa7565b6106b86000838361074a565b80600260008282546106ca9190610af5565b90915550506001600160a01b038216600090815260208190526040812080548392906106f7908490610af5565b90915550506040516001600160a01b038316906000907fddf252ad1be2c89b69c2b068fc378daa952ba7f163c4a11628f55a4df523b3ef9061073a908590610ade565b60405180910390a36103ab600083835b505050565b80356001600160a01b03811681146103d857600080fd5b600060208284031215610777578081fd5b6107808261074f565b9392505050565b60008060408385031215610799578081fd5b6107a28361074f565b91506107b06020840161074f565b90509250929050565b6000806000606084860312156107cd578081fd5b6107d68461074f565b92506107e46020850161074f565b9150604084013590509250925092565b60008060408385031215610806578182fd5b61080f8361074f565b946020939093013593505050565b6001600160a01b0391909116815260200190565b901515815260200190565b6000602080835283518082850152825b818110156108685785810183015185820160400152820161084c565b818111156108795783604083870101525b50601f01601f1916929092016040019392505050565b60208082526023908201527f45524332303a207472616e7366657220746f20746865207a65726f206164647260408201526265737360e81b606082015260800190565b60208082526022908201527f45524332303a20617070726f766520746f20746865207a65726f206164647265604082015261737360f01b606082015260800190565b60208082526026908201527f45524332303a207472616e7366657220616d6f756e7420657863656564732062604082015265616c616e636560d01b606082015260800190565b6020808252601d908201527f4f6e6c79206d617374657220636f6e74726163742063616e206d696e74000000604082015260600190565b60208082526028908201527f45524332303a207472616e7366657220616d6f756e74206578636565647320616040820152676c6c6f77616e636560c01b606082015260800190565b60208082526025908201527f45524332303a207472616e736665722066726f6d20746865207a65726f206164604082015264647265737360d81b606082015260800190565b60208082526024908201527f45524332303a20617070726f76652066726f6d20746865207a65726f206164646040820152637265737360e01b606082015260800190565b60208082526025908201527f45524332303a2064656372656173656420616c6c6f77616e63652062656c6f77604082015264207a65726f60d81b606082015260800190565b6020808252601f908201527f45524332303a206d696e7420746f20746865207a65726f206164647265737300604082015260600190565b90815260200190565b60ff91909116815260200190565b60008219821115610b1457634e487b7160e01b81526011600452602481fd5b500190565b600281046001821680610b2d57607f821691505b60208210811415610b4e57634e487b7160e01b600052602260045260246000fd5b5091905056fea26469706673582212204f4615025ed56f56de1cfb9a5998532884e3db8ae19e20b5bef125568de1630e64736f6c63430008000033",
  "devdoc": {
    "author": "Jeffrey Lin",
    "kind": "dev",
    "methods": {
      "approve(address,uint256)": {
        "details": "See {IERC721-approve}."
      },
      "balanceOf(address)": {
        "details": "See {IERC721-balanceOf}."
      },
      "constructor": {
        "details": "Set interval and deploy according Democracy Token"
      },
      "getApproved(uint256)": {
        "details": "See {IERC721-getApproved}."
      },
      "isApprovedForAll(address,address)": {
        "details": "See {IERC721-isApprovedForAll}."
      },
      "mintDemocracySpiritNFT(string)": {
        "details": "Mint Democracy Spirit NFT (only owner)"
      },
      "name()": {
        "details": "See {IERC721Metadata-name}."
      },
      "ownerOf(uint256)": {
        "details": "See {IERC721-ownerOf}."
      },
      "safeTransferFrom(address,address,uint256)": {
        "details": "See {IERC721-safeTransferFrom}."
      },
      "safeTransferFrom(address,address,uint256,bytes)": {
        "details": "See {IERC721-safeTransferFrom}."
      },
      "setApprovalForAll(address,bool)": {
        "details": "See {IERC721-setApprovalForAll}."
      },
      "supportsInterface(bytes4)": {
        "details": "See {IERC165-supportsInterface}."
      },
      "symbol()": {
        "details": "See {IERC721Metadata-symbol}."
      },
      "tokenURI(uint256)": {
        "details": "See {IERC721Metadata-tokenURI}."
      },
      "transferFrom(address,address,uint256)": {
        "details": "See {IERC721-transferFrom}."
      }
    },
    "stateVariables": {
      "_isDemocracySpiritMinted": {
        "details": "If Democracy NFT is minted"
      },
      "_isMinted": {
        "details": "One NFT for one address"
      }
    },
    "title": "Mint NFT for Taiwan referendum 2021 ",
    "version": 1
  },
  "userdoc": {
    "kind": "user",
    "methods": {
      "democracyToken()": {
        "notice": "Token of democracy spirit"
      },
      "endTime()": {
        "notice": "Ending time of referendum"
      },
      "feePayer()": {
        "notice": "Fee payer for not onboard users"
      },
      "mint(string)": {
        "notice": "Mint NFT for self"
      },
      "mintTo(string,address)": {
        "notice": "Mint NFT for others"
      },
      "startTime()": {
        "notice": "Starting time of referedum"
      },
      "totalSupply()": {
        "notice": "Total NFT minted"
      }
    },
    "version": 1
  },
  "storageLayout": {
    "storage": [
      {
        "astId": 674,
        "contract": "contracts/Referendum.sol:Referendum",
        "label": "_name",
        "offset": 0,
        "slot": "0",
        "type": "t_string_storage"
      },
      {
        "astId": 676,
        "contract": "contracts/Referendum.sol:Referendum",
        "label": "_symbol",
        "offset": 0,
        "slot": "1",
        "type": "t_string_storage"
      },
      {
        "astId": 680,
        "contract": "contracts/Referendum.sol:Referendum",
        "label": "_owners",
        "offset": 0,
        "slot": "2",
        "type": "t_mapping(t_uint256,t_address)"
      },
      {
        "astId": 684,
        "contract": "contracts/Referendum.sol:Referendum",
        "label": "_balances",
        "offset": 0,
        "slot": "3",
        "type": "t_mapping(t_address,t_uint256)"
      },
      {
        "astId": 688,
        "contract": "contracts/Referendum.sol:Referendum",
        "label": "_tokenApprovals",
        "offset": 0,
        "slot": "4",
        "type": "t_mapping(t_uint256,t_address)"
      },
      {
        "astId": 694,
        "contract": "contracts/Referendum.sol:Referendum",
        "label": "_operatorApprovals",
        "offset": 0,
        "slot": "5",
        "type": "t_mapping(t_address,t_mapping(t_address,t_bool))"
      },
      {
        "astId": 1626,
        "contract": "contracts/Referendum.sol:Referendum",
        "label": "_tokenURIs",
        "offset": 0,
        "slot": "6",
        "type": "t_mapping(t_uint256,t_string_storage)"
      },
      {
        "astId": 2389,
        "contract": "contracts/Referendum.sol:Referendum",
        "label": "feePayer",
        "offset": 0,
        "slot": "7",
        "type": "t_address"
      },
      {
        "astId": 2392,
        "contract": "contracts/Referendum.sol:Referendum",
        "label": "totalSupply",
        "offset": 0,
        "slot": "8",
        "type": "t_uint256"
      },
      {
        "astId": 2395,
        "contract": "contracts/Referendum.sol:Referendum",
        "label": "startTime",
        "offset": 0,
        "slot": "9",
        "type": "t_uint256"
      },
      {
        "astId": 2398,
        "contract": "contracts/Referendum.sol:Referendum",
        "label": "endTime",
        "offset": 0,
        "slot": "10",
        "type": "t_uint256"
      },
      {
        "astId": 2402,
        "contract": "contracts/Referendum.sol:Referendum",
        "label": "democracyToken",
        "offset": 0,
        "slot": "11",
        "type": "t_contract(IDemocracyToken)2383"
      },
      {
        "astId": 2405,
        "contract": "contracts/Referendum.sol:Referendum",
        "label": "_isDemocracySpiritMinted",
        "offset": 20,
        "slot": "11",
        "type": "t_bool"
      },
      {
        "astId": 2410,
        "contract": "contracts/Referendum.sol:Referendum",
        "label": "_isMinted",
        "offset": 0,
        "slot": "12",
        "type": "t_mapping(t_address,t_bool)"
      }
    ],
    "types": {
      "t_address": {
        "encoding": "inplace",
        "label": "address",
        "numberOfBytes": "20"
      },
      "t_bool": {
        "encoding": "inplace",
        "label": "bool",
        "numberOfBytes": "1"
      },
      "t_contract(IDemocracyToken)2383": {
        "encoding": "inplace",
        "label": "contract IDemocracyToken",
        "numberOfBytes": "20"
      },
      "t_mapping(t_address,t_bool)": {
        "encoding": "mapping",
        "key": "t_address",
        "label": "mapping(address => bool)",
        "numberOfBytes": "32",
        "value": "t_bool"
      },
      "t_mapping(t_address,t_mapping(t_address,t_bool))": {
        "encoding": "mapping",
        "key": "t_address",
        "label": "mapping(address => mapping(address => bool))",
        "numberOfBytes": "32",
        "value": "t_mapping(t_address,t_bool)"
      },
      "t_mapping(t_address,t_uint256)": {
        "encoding": "mapping",
        "key": "t_address",
        "label": "mapping(address => uint256)",
        "numberOfBytes": "32",
        "value": "t_uint256"
      },
      "t_mapping(t_uint256,t_address)": {
        "encoding": "mapping",
        "key": "t_uint256",
        "label": "mapping(uint256 => address)",
        "numberOfBytes": "32",
        "value": "t_address"
      },
      "t_mapping(t_uint256,t_string_storage)": {
        "encoding": "mapping",
        "key": "t_uint256",
        "label": "mapping(uint256 => string)",
        "numberOfBytes": "32",
        "value": "t_string_storage"
      },
      "t_string_storage": {
        "encoding": "bytes",
        "label": "string",
        "numberOfBytes": "32"
      },
      "t_uint256": {
        "encoding": "inplace",
        "label": "uint256",
        "numberOfBytes": "32"
      }
    }
  }
}