{
  "address": "0x5FbDB2315678afecb367f032d93F642f64180aa3",
  "abi": [
    {
      "inputs": [
        {
          "internalType": "uint256",
          "name": "startTime_",
          "type": "uint256"
        },
        {
          "internalType": "uint256",
          "name": "endTime_",
          "type": "uint256"
        }
      ],
      "stateMutability": "nonpayable",
      "type": "constructor"
    },
    {
      "anonymous": false,
      "inputs": [
        {
          "indexed": true,
          "internalType": "address",
          "name": "owner",
          "type": "address"
        },
        {
          "indexed": true,
          "internalType": "address",
          "name": "approved",
          "type": "address"
        },
        {
          "indexed": true,
          "internalType": "uint256",
          "name": "tokenId",
          "type": "uint256"
        }
      ],
      "name": "Approval",
      "type": "event"
    },
    {
      "anonymous": false,
      "inputs": [
        {
          "indexed": true,
          "internalType": "address",
          "name": "owner",
          "type": "address"
        },
        {
          "indexed": true,
          "internalType": "address",
          "name": "operator",
          "type": "address"
        },
        {
          "indexed": false,
          "internalType": "bool",
          "name": "approved",
          "type": "bool"
        }
      ],
      "name": "ApprovalForAll",
      "type": "event"
    },
    {
      "anonymous": false,
      "inputs": [
        {
          "indexed": true,
          "internalType": "address",
          "name": "from",
          "type": "address"
        },
        {
          "indexed": true,
          "internalType": "address",
          "name": "to",
          "type": "address"
        },
        {
          "indexed": true,
          "internalType": "uint256",
          "name": "tokenId",
          "type": "uint256"
        }
      ],
      "name": "Transfer",
      "type": "event"
    },
    {
      "inputs": [
        {
          "internalType": "address",
          "name": "to",
          "type": "address"
        },
        {
          "internalType": "uint256",
          "name": "tokenId",
          "type": "uint256"
        }
      ],
      "name": "approve",
      "outputs": [],
      "stateMutability": "nonpayable",
      "type": "function"
    },
    {
      "inputs": [
        {
          "internalType": "address",
          "name": "owner",
          "type": "address"
        }
      ],
      "name": "balanceOf",
      "outputs": [
        {
          "internalType": "uint256",
          "name": "",
          "type": "uint256"
        }
      ],
      "stateMutability": "view",
      "type": "function"
    },
    {
      "inputs": [],
      "name": "democracyToken",
      "outputs": [
        {
          "internalType": "contract IDemocracyToken",
          "name": "",
          "type": "address"
        }
      ],
      "stateMutability": "view",
      "type": "function"
    },
    {
      "inputs": [],
      "name": "endTime",
      "outputs": [
        {
          "internalType": "uint256",
          "name": "",
          "type": "uint256"
        }
      ],
      "stateMutability": "view",
      "type": "function"
    },
    {
      "inputs": [
        {
          "internalType": "uint256",
          "name": "tokenId",
          "type": "uint256"
        }
      ],
      "name": "getApproved",
      "outputs": [
        {
          "internalType": "address",
          "name": "",
          "type": "address"
        }
      ],
      "stateMutability": "view",
      "type": "function"
    },
    {
      "inputs": [],
      "name": "getDemocracyTokenURI",
      "outputs": [
        {
          "internalType": "string",
          "name": "",
          "type": "string"
        }
      ],
      "stateMutability": "view",
      "type": "function"
    },
    {
      "inputs": [
        {
          "internalType": "address",
          "name": "owner",
          "type": "address"
        },
        {
          "internalType": "address",
          "name": "operator",
          "type": "address"
        }
      ],
      "name": "isApprovedForAll",
      "outputs": [
        {
          "internalType": "bool",
          "name": "",
          "type": "bool"
        }
      ],
      "stateMutability": "view",
      "type": "function"
    },
    {
      "inputs": [
        {
          "internalType": "string",
          "name": "tokenURI_",
          "type": "string"
        }
      ],
      "name": "mint",
      "outputs": [],
      "stateMutability": "nonpayable",
      "type": "function"
    },
    {
      "inputs": [
        {
          "internalType": "string",
          "name": "tokenURI_",
          "type": "string"
        }
      ],
      "name": "mintDemocracySpirityNFT",
      "outputs": [],
      "stateMutability": "nonpayable",
      "type": "function"
    },
    {
      "inputs": [
        {
          "internalType": "string",
          "name": "tokenURI_",
          "type": "string"
        },
        {
          "internalType": "address",
          "name": "to_",
          "type": "address"
        }
      ],
      "name": "mintTo",
      "outputs": [],
      "stateMutability": "nonpayable",
      "type": "function"
    },
    {
      "inputs": [],
      "name": "name",
      "outputs": [
        {
          "internalType": "string",
          "name": "",
          "type": "string"
        }
      ],
      "stateMutability": "view",
      "type": "function"
    },
    {
      "inputs": [],
      "name": "owner",
      "outputs": [
        {
          "internalType": "address",
          "name": "",
          "type": "address"
        }
      ],
      "stateMutability": "view",
      "type": "function"
    },
    {
      "inputs": [
        {
          "internalType": "uint256",
          "name": "tokenId",
          "type": "uint256"
        }
      ],
      "name": "ownerOf",
      "outputs": [
        {
          "internalType": "address",
          "name": "",
          "type": "address"
        }
      ],
      "stateMutability": "view",
      "type": "function"
    },
    {
      "inputs": [
        {
          "internalType": "address",
          "name": "from",
          "type": "address"
        },
        {
          "internalType": "address",
          "name": "to",
          "type": "address"
        },
        {
          "internalType": "uint256",
          "name": "tokenId",
          "type": "uint256"
        }
      ],
      "name": "safeTransferFrom",
      "outputs": [],
      "stateMutability": "nonpayable",
      "type": "function"
    },
    {
      "inputs": [
        {
          "internalType": "address",
          "name": "from",
          "type": "address"
        },
        {
          "internalType": "address",
          "name": "to",
          "type": "address"
        },
        {
          "internalType": "uint256",
          "name": "tokenId",
          "type": "uint256"
        },
        {
          "internalType": "bytes",
          "name": "_data",
          "type": "bytes"
        }
      ],
      "name": "safeTransferFrom",
      "outputs": [],
      "stateMutability": "nonpayable",
      "type": "function"
    },
    {
      "inputs": [
        {
          "internalType": "address",
          "name": "operator",
          "type": "address"
        },
        {
          "internalType": "bool",
          "name": "approved",
          "type": "bool"
        }
      ],
      "name": "setApprovalForAll",
      "outputs": [],
      "stateMutability": "nonpayable",
      "type": "function"
    },
    {
      "inputs": [],
      "name": "startTime",
      "outputs": [
        {
          "internalType": "uint256",
          "name": "",
          "type": "uint256"
        }
      ],
      "stateMutability": "view",
      "type": "function"
    },
    {
      "inputs": [
        {
          "internalType": "bytes4",
          "name": "interfaceId",
          "type": "bytes4"
        }
      ],
      "name": "supportsInterface",
      "outputs": [
        {
          "internalType": "bool",
          "name": "",
          "type": "bool"
        }
      ],
      "stateMutability": "view",
      "type": "function"
    },
    {
      "inputs": [],
      "name": "symbol",
      "outputs": [
        {
          "internalType": "string",
          "name": "",
          "type": "string"
        }
      ],
      "stateMutability": "view",
      "type": "function"
    },
    {
      "inputs": [
        {
          "internalType": "uint256",
          "name": "tokenId",
          "type": "uint256"
        }
      ],
      "name": "tokenURI",
      "outputs": [
        {
          "internalType": "string",
          "name": "",
          "type": "string"
        }
      ],
      "stateMutability": "view",
      "type": "function"
    },
    {
      "inputs": [],
      "name": "totalMinted",
      "outputs": [
        {
          "internalType": "uint256",
          "name": "",
          "type": "uint256"
        }
      ],
      "stateMutability": "view",
      "type": "function"
    },
    {
      "inputs": [
        {
          "internalType": "address",
          "name": "from",
          "type": "address"
        },
        {
          "internalType": "address",
          "name": "to",
          "type": "address"
        },
        {
          "internalType": "uint256",
          "name": "tokenId",
          "type": "uint256"
        }
      ],
      "name": "transferFrom",
      "outputs": [],
      "stateMutability": "nonpayable",
      "type": "function"
    }
  ],
  "transactionHash": "0x35e96bfeabc0b7c237e1d22f81d0de6213d9466c5520e536116370e0bd0a58e2",
  "args": [
    "1639548257",
    "1640153057"
  ],
  "solcInputHash": "c7088ac460f08e401eb567b7e26e5d94",
  "bytecode": "0x60806040523480156200001157600080fd5b5060405162002b6138038062002b618339810160408190526200003491620001dc565b604080518082018252600a8152695265666572656e64756d60b01b6020808301918252835180850190945260048452631493919560e21b908401528151919291620000829160009162000128565b5080516200009890600190602084019062000128565b5050506009829055600a819055604051620000b390620001b7565b604051809103906000f080158015620000d0573d6000803e3d6000fd5b50600b80546001600160a01b0319166001600160a01b0392909216919091179055620000fb62000124565b600780546001600160a01b0319166001600160a01b0392909216919091179055506200023d9050565b3390565b828054620001369062000200565b90600052602060002090601f0160209004810192826200015a5760008555620001a5565b82601f106200017557805160ff1916838001178555620001a5565b82800160010185558215620001a5579182015b82811115620001a557825182559160200191906001019062000188565b50620001b3929150620001c5565b5090565b610cf88062001e6983390190565b5b80821115620001b35760008155600101620001c6565b60008060408385031215620001ef578182fd5b505080516020909101519092909150565b6002810460018216806200021557607f821691505b602082108114156200023757634e487b7160e01b600052602260045260246000fd5b50919050565b611c1c806200024d6000396000f3fe608060405234801561001057600080fd5b50600436106101225760003560e01c806386f504c8116100a857806386f504c8146102165780638da5cb5b1461021e57806395d89b4114610226578063a22cb4651461022e578063a2309ff814610241578063b88d4fde14610249578063c87b56dd1461025c578063d85d3d271461026f578063dd87acce14610282578063e985e9c51461028a578063fe42a2d91461029d57610122565b806301ffc9a71461012757806306fdde0314610150578063081812fc14610165578063095ea7b3146101855780632322c8ec1461019a57806323b872dd146101ad5780633197cbb6146101c057806342842e0e146101d55780636352211e146101e857806370a08231146101fb57806378e979251461020e575b600080fd5b61013a610135366004611389565b6102b0565b6040516101479190611515565b60405180910390f35b6101586102f8565b6040516101479190611520565b610178610173366004611451565b61038a565b60405161014791906114c4565b610198610193366004611360565b6103d6565b005b6101986101a83660046113c1565b61046e565b6101986101bb366004611220565b61056b565b6101c86105a3565b6040516101479190611aa9565b6101986101e3366004611220565b6105a9565b6101786101f6366004611451565b6105c4565b6101c86102093660046111d4565b6105f9565b6101c861063d565b610158610643565b610178610686565b610158610695565b61019861023c366004611326565b6106a4565b6101c86106ba565b61019861025736600461125b565b6106c0565b61015861026a366004611451565b6106ff565b61019861027d3660046113c1565b610820565b61017861082d565b61013a6102983660046111ee565b61083c565b6101986102ab366004611400565b61086a565b60006001600160e01b031982166380ac58cd60e01b14806102e157506001600160e01b03198216635b5e139f60e01b145b806102f057506102f0826109c3565b90505b919050565b60606000805461030790611b21565b80601f016020809104026020016040519081016040528092919081815260200182805461033390611b21565b80156103805780601f1061035557610100808354040283529160200191610380565b820191906000526020600020905b81548152906001019060200180831161036357829003601f168201915b5050505050905090565b6000610395826109dc565b6103ba5760405162461bcd60e51b81526004016103b1906118be565b60405180910390fd5b506000908152600460205260409020546001600160a01b031690565b60006103e1826105c4565b9050806001600160a01b0316836001600160a01b031614156104155760405162461bcd60e51b81526004016103b1906119a2565b806001600160a01b03166104276109f9565b6001600160a01b031614806104435750610443816102986109f9565b61045f5760405162461bcd60e51b81526004016103b1906116cb565b61046983836109fd565b505050565b6104766109f9565b6007546001600160a01b039081169116146104a35760405162461bcd60e51b81526004016103b19061155b565b600a544210156104c55760405162461bcd60e51b81526004016103b190611a79565b600b54600160a01b900460ff16156104ef5760405162461bcd60e51b81526004016103b190611533565b600b805460ff60a01b1916600160a01b179055600854610510903090610a6b565b61055260085483838080601f016020809104026020016040519081016040528093929190818152602001838380828437600092019190915250610b4a92505050565b6008805490600061056283611b5c565b91905055505050565b61057c6105766109f9565b82610b8e565b6105985760405162461bcd60e51b81526004016103b1906119e3565b610469838383610c0b565b600a5481565b610469838383604051806020016040528060008152506106c0565b6000818152600260205260408120546001600160a01b0316806102f05760405162461bcd60e51b81526004016103b19061176d565b60006001600160a01b0382166106215760405162461bcd60e51b81526004016103b190611723565b506001600160a01b031660009081526003602052604090205490565b60095481565b600b54606090600160a01b900460ff1661066f5760405162461bcd60e51b81526004016103b190611804565b610681600160085461026a9190611ade565b905090565b6007546001600160a01b031681565b60606001805461030790611b21565b6106b66106af6109f9565b8383610d38565b5050565b60085481565b6106d16106cb6109f9565b83610b8e565b6106ed5760405162461bcd60e51b81526004016103b1906119e3565b6106f984848484610ddb565b50505050565b606061070a826109dc565b6107265760405162461bcd60e51b81526004016103b19061186d565b6000828152600660205260408120805461073f90611b21565b80601f016020809104026020016040519081016040528092919081815260200182805461076b90611b21565b80156107b85780601f1061078d576101008083540402835291602001916107b8565b820191906000526020600020905b81548152906001019060200180831161079b57829003601f168201915b5050505050905060006107c9610e0e565b90508051600014156107dd575090506102f3565b81511561080f5780826040516020016107f7929190611495565b604051602081830303815290604052925050506102f3565b61081884610e20565b949350505050565b6106b682826102ab6109f9565b600b546001600160a01b031681565b6001600160a01b03918216600090815260056020908152604080832093909416825291909152205460ff1690565b600954421015801561087e5750600a544211155b61089a5760405162461bcd60e51b81526004016103b190611a34565b6001600160a01b0381166000908152600c602052604090205460ff16156108d35760405162461bcd60e51b81526004016103b190611533565b6001600160a01b0381166000908152600c60205260409020805460ff19166001179055600854610904908290610a6b565b61094660085484848080601f016020809104026020016040519081016040528093929190818152602001838380828437600092019190915250610b4a92505050565b600b546040516335313c2160e11b81526001600160a01b0390911690636a627842906109769084906004016114c4565b600060405180830381600087803b15801561099057600080fd5b505af11580156109a4573d6000803e3d6000fd5b5050600880549250905060006109b983611b5c565b9190505550505050565b6001600160e01b031981166301ffc9a760e01b14919050565b6000908152600260205260409020546001600160a01b0316151590565b3390565b600081815260046020526040902080546001600160a01b0319166001600160a01b0384169081179091558190610a32826105c4565b6001600160a01b03167f8c5be1e5ebec7d5bd14f71427d1e84f3dd0314c0f7b2291e5b200ac8c7c3b92560405160405180910390a45050565b6001600160a01b038216610a915760405162461bcd60e51b81526004016103b190611838565b610a9a816109dc565b15610ab75760405162461bcd60e51b81526004016103b1906115d1565b610ac360008383610469565b6001600160a01b0382166000908152600360205260408120805460019290610aec908490611ab2565b909155505060008181526002602052604080822080546001600160a01b0319166001600160a01b03861690811790915590518392907fddf252ad1be2c89b69c2b068fc378daa952ba7f163c4a11628f55a4df523b3ef908290a45050565b610b53826109dc565b610b6f5760405162461bcd60e51b81526004016103b1906117b6565b60008281526006602090815260409091208251610469928401906110de565b6000610b99826109dc565b610bb55760405162461bcd60e51b81526004016103b19061167f565b6000610bc0836105c4565b9050806001600160a01b0316846001600160a01b03161480610bfb5750836001600160a01b0316610bf08461038a565b6001600160a01b0316145b806108185750610818818561083c565b826001600160a01b0316610c1e826105c4565b6001600160a01b031614610c445760405162461bcd60e51b81526004016103b19061190a565b6001600160a01b038216610c6a5760405162461bcd60e51b81526004016103b190611608565b610c75838383610469565b610c806000826109fd565b6001600160a01b0383166000908152600360205260408120805460019290610ca9908490611ade565b90915550506001600160a01b0382166000908152600360205260408120805460019290610cd7908490611ab2565b909155505060008181526002602052604080822080546001600160a01b0319166001600160a01b0386811691821790925591518493918716917fddf252ad1be2c89b69c2b068fc378daa952ba7f163c4a11628f55a4df523b3ef91a4505050565b816001600160a01b0316836001600160a01b03161415610d6a5760405162461bcd60e51b81526004016103b19061164c565b6001600160a01b0383811660008181526005602090815260408083209487168084529490915290819020805460ff1916851515179055517f17307eab39ab6107e8899845ad3d59bd9653f200f220920489ca2b5937696c3190610dce908590611515565b60405180910390a3505050565b610de6848484610c0b565b610df284848484610ea3565b6106f95760405162461bcd60e51b81526004016103b19061157f565b60408051602081019091526000815290565b6060610e2b826109dc565b610e475760405162461bcd60e51b81526004016103b190611953565b6000610e51610e0e565b90506000815111610e715760405180602001604052806000815250610e9c565b80610e7b84610fbe565b604051602001610e8c929190611495565b6040516020818303038152906040525b9392505050565b6000610eb7846001600160a01b03166110d8565b15610fb357836001600160a01b031663150b7a02610ed36109f9565b8786866040518563ffffffff1660e01b8152600401610ef594939291906114d8565b602060405180830381600087803b158015610f0f57600080fd5b505af1925050508015610f3f575060408051601f3d908101601f19168201909252610f3c918101906113a5565b60015b610f99573d808015610f6d576040519150601f19603f3d011682016040523d82523d6000602084013e610f72565b606091505b508051610f915760405162461bcd60e51b81526004016103b19061157f565b805181602001fd5b6001600160e01b031916630a85bd0160e11b149050610818565b506001949350505050565b606081610fe357506040805180820190915260018152600360fc1b60208201526102f3565b8160005b811561100d5780610ff781611b5c565b91506110069050600a83611aca565b9150610fe7565b6000816001600160401b0381111561103557634e487b7160e01b600052604160045260246000fd5b6040519080825280601f01601f19166020018201604052801561105f576020820181803683370190505b5090505b841561081857611074600183611ade565b9150611081600a86611b77565b61108c906030611ab2565b60f81b8183815181106110af57634e487b7160e01b600052603260045260246000fd5b60200101906001600160f81b031916908160001a9053506110d1600a86611aca565b9450611063565b3b151590565b8280546110ea90611b21565b90600052602060002090601f01602090048101928261110c5760008555611152565b82601f1061112557805160ff1916838001178555611152565b82800160010185558215611152579182015b82811115611152578251825591602001919060010190611137565b5061115e929150611162565b5090565b5b8082111561115e5760008155600101611163565b80356001600160a01b03811681146102f357600080fd5b60008083601f84011261119f578182fd5b5081356001600160401b038111156111b5578182fd5b6020830191508360208285010111156111cd57600080fd5b9250929050565b6000602082840312156111e5578081fd5b610e9c82611177565b60008060408385031215611200578081fd5b61120983611177565b915061121760208401611177565b90509250929050565b600080600060608486031215611234578081fd5b61123d84611177565b925061124b60208501611177565b9150604084013590509250925092565b60008060008060808587031215611270578081fd5b61127985611177565b93506020611288818701611177565b93506040860135925060608601356001600160401b03808211156112aa578384fd5b818801915088601f8301126112bd578384fd5b8135818111156112cf576112cf611bb7565b604051601f8201601f19168101850183811182821017156112f2576112f2611bb7565b60405281815283820185018b1015611308578586fd5b81858501868301379081019093019390935250939692955090935050565b60008060408385031215611338578182fd5b61134183611177565b915060208301358015158114611355578182fd5b809150509250929050565b60008060408385031215611372578182fd5b61137b83611177565b946020939093013593505050565b60006020828403121561139a578081fd5b8135610e9c81611bcd565b6000602082840312156113b6578081fd5b8151610e9c81611bcd565b600080602083850312156113d3578182fd5b82356001600160401b038111156113e8578283fd5b6113f48582860161118e565b90969095509350505050565b600080600060408486031215611414578283fd5b83356001600160401b03811115611429578384fd5b6114358682870161118e565b9094509250611448905060208501611177565b90509250925092565b600060208284031215611462578081fd5b5035919050565b60008151808452611481816020860160208601611af5565b601f01601f19169290920160200192915050565b600083516114a7818460208801611af5565b8351908301906114bb818360208801611af5565b01949350505050565b6001600160a01b0391909116815260200190565b6001600160a01b038581168252841660208201526040810183905260806060820181905260009061150b90830184611469565b9695505050505050565b901515815260200190565b600060208252610e9c6020830184611469565b6020808252600e908201526d105b1c9958591e481b5a5b9d195960921b604082015260600190565b6020808252600a908201526927b7363c9037bbb732b960b11b604082015260600190565b60208082526032908201527f4552433732313a207472616e7366657220746f206e6f6e20455243373231526560408201527131b2b4bb32b91034b6b83632b6b2b73a32b960711b606082015260800190565b6020808252601c908201527f4552433732313a20746f6b656e20616c7265616479206d696e74656400000000604082015260600190565b60208082526024908201527f4552433732313a207472616e7366657220746f20746865207a65726f206164646040820152637265737360e01b606082015260800190565b60208082526019908201527822a9219b99189d1030b8383937bb32903a379031b0b63632b960391b604082015260600190565b6020808252602c908201527f4552433732313a206f70657261746f7220717565727920666f72206e6f6e657860408201526b34b9ba32b73a103a37b5b2b760a11b606082015260800190565b60208082526038908201527f4552433732313a20617070726f76652063616c6c6572206973206e6f74206f776040820152771b995c881b9bdc88185c1c1c9bdd995908199bdc88185b1b60421b606082015260800190565b6020808252602a908201527f4552433732313a2062616c616e636520717565727920666f7220746865207a65604082015269726f206164647265737360b01b606082015260800190565b60208082526029908201527f4552433732313a206f776e657220717565727920666f72206e6f6e657869737460408201526832b73a103a37b5b2b760b91b606082015260800190565b6020808252602e908201527f45524337323155524953746f726167653a2055524920736574206f66206e6f6e60408201526d32bc34b9ba32b73a103a37b5b2b760911b606082015260800190565b6020808252601a908201527911195b5bd8dc9858de539195081a185cdb89dd081b5a5b9d195960321b604082015260600190565b6020808252818101527f4552433732313a206d696e7420746f20746865207a65726f2061646472657373604082015260600190565b60208082526031908201527f45524337323155524953746f726167653a2055524920717565727920666f72206040820152703737b732bc34b9ba32b73a103a37b5b2b760791b606082015260800190565b6020808252602c908201527f4552433732313a20617070726f76656420717565727920666f72206e6f6e657860408201526b34b9ba32b73a103a37b5b2b760a11b606082015260800190565b60208082526029908201527f4552433732313a207472616e73666572206f6620746f6b656e2074686174206960408201526839903737ba1037bbb760b91b606082015260800190565b6020808252602f908201527f4552433732314d657461646174613a2055524920717565727920666f72206e6f60408201526e3732bc34b9ba32b73a103a37b5b2b760891b606082015260800190565b60208082526021908201527f4552433732313a20617070726f76616c20746f2063757272656e74206f776e656040820152603960f91b606082015260800190565b60208082526031908201527f4552433732313a207472616e736665722063616c6c6572206973206e6f74206f6040820152701ddb995c881b9bdc88185c1c1c9bdd9959607a1b606082015260800190565b60208082526025908201527f4d696e742074696d65206861736e27742073746172746564206f722068617320604082015264195b99195960da1b606082015260800190565b602080825260169082015275135a5b9d081d1a5b59481a185cdb89dd08195b99195960521b604082015260600190565b90815260200190565b60008219821115611ac557611ac5611b8b565b500190565b600082611ad957611ad9611ba1565b500490565b600082821015611af057611af0611b8b565b500390565b60005b83811015611b10578181015183820152602001611af8565b838111156106f95750506000910152565b600281046001821680611b3557607f821691505b60208210811415611b5657634e487b7160e01b600052602260045260246000fd5b50919050565b6000600019821415611b7057611b70611b8b565b5060010190565b600082611b8657611b86611ba1565b500690565b634e487b7160e01b600052601160045260246000fd5b634e487b7160e01b600052601260045260246000fd5b634e487b7160e01b600052604160045260246000fd5b6001600160e01b031981168114611be357600080fd5b5056fea264697066735822122028f9c21d8ac92ca1ae5167fd3f4db4c8be1f88ec9d24aae52d9dac665b42f67d64736f6c6343000800003360806040523480156200001157600080fd5b506040518060400160405280600981526020016844656d6f637261637960b81b81525060405180604001604052806003815260200162444f4d60e81b815250816003908051906020019062000068929190620000b6565b5080516200007e906004906020840190620000b6565b506200008c915050620000b2565b600580546001600160a01b0319166001600160a01b039290921691909117905562000199565b3390565b828054620000c4906200015c565b90600052602060002090601f016020900481019282620000e8576000855562000133565b82601f106200010357805160ff191683800117855562000133565b8280016001018555821562000133579182015b828111156200013357825182559160200191906001019062000116565b506200014192915062000145565b5090565b5b8082111562000141576000815560010162000146565b6002810460018216806200017157607f821691505b602082108114156200019357634e487b7160e01b600052602260045260246000fd5b50919050565b610b4f80620001a96000396000f3fe608060405234801561001057600080fd5b50600436106100a45760003560e01c806306fdde03146100a9578063095ea7b3146100c757806318160ddd146100e757806323b872dd146100fc578063313ce5671461010f57806339509351146101245780636a6278421461013757806370a082311461014c57806395d89b411461015f578063a457c2d714610167578063a9059cbb1461017a578063dd62ed3e1461018d575b600080fd5b6100b16101a0565b6040516100be9190610801565b60405180910390f35b6100da6100d53660046107cd565b610232565b6040516100be91906107f6565b6100ef61024f565b6040516100be9190610aa3565b6100da61010a366004610792565b610255565b6101176102ee565b6040516100be9190610aac565b6100da6101323660046107cd565b6102f3565b61014a61014536600461073f565b610347565b005b6100ef61015a36600461073f565b61038f565b6100b16103ae565b6100da6101753660046107cd565b6103bd565b6100da6101883660046107cd565b610436565b6100ef61019b366004610760565b61044a565b6060600380546101af90610ade565b80601f01602080910402602001604051908101604052809291908181526020018280546101db90610ade565b80156102285780601f106101fd57610100808354040283529160200191610228565b820191906000526020600020905b81548152906001019060200180831161020b57829003601f168201915b5050505050905090565b600061024661023f610475565b8484610479565b50600192915050565b60025490565b600061026284848461052d565b6001600160a01b038416600090815260016020526040812081610283610475565b6001600160a01b03166001600160a01b03168152602001908152602001600020549050828110156102cf5760405162461bcd60e51b81526004016102c690610956565b60405180910390fd5b6102e3856102db610475565b858403610479565b506001949350505050565b601290565b6000610246610300610475565b84846001600061030e610475565b6001600160a01b03908116825260208083019390935260409182016000908120918b16815292529020546103429190610aba565b610479565b6005546001600160a01b031661035b610475565b6001600160a01b0316146103815760405162461bcd60e51b81526004016102c69061091f565b61038c816001610657565b50565b6001600160a01b0381166000908152602081905260409020545b919050565b6060600480546101af90610ade565b600080600160006103cc610475565b6001600160a01b03908116825260208083019390935260409182016000908120918816815292529020549050828110156104185760405162461bcd60e51b81526004016102c690610a27565b61042c610423610475565b85858403610479565b5060019392505050565b6000610246610443610475565b848461052d565b6001600160a01b03918216600090815260016020908152604080832093909416825291909152205490565b3390565b6001600160a01b03831661049f5760405162461bcd60e51b81526004016102c6906109e3565b6001600160a01b0382166104c55760405162461bcd60e51b81526004016102c690610897565b6001600160a01b0380841660008181526001602090815260408083209487168084529490915290819020849055517f8c5be1e5ebec7d5bd14f71427d1e84f3dd0314c0f7b2291e5b200ac8c7c3b92590610520908590610aa3565b60405180910390a3505050565b6001600160a01b0383166105535760405162461bcd60e51b81526004016102c69061099e565b6001600160a01b0382166105795760405162461bcd60e51b81526004016102c690610854565b610584838383610723565b6001600160a01b038316600090815260208190526040902054818110156105bd5760405162461bcd60e51b81526004016102c6906108d9565b6001600160a01b038085166000908152602081905260408082208585039055918516815290812080548492906105f4908490610aba565b92505081905550826001600160a01b0316846001600160a01b03167fddf252ad1be2c89b69c2b068fc378daa952ba7f163c4a11628f55a4df523b3ef8460405161063e9190610aa3565b60405180910390a3610651848484610723565b50505050565b6001600160a01b03821661067d5760405162461bcd60e51b81526004016102c690610a6c565b61068960008383610723565b806002600082825461069b9190610aba565b90915550506001600160a01b038216600090815260208190526040812080548392906106c8908490610aba565b90915550506040516001600160a01b038316906000907fddf252ad1be2c89b69c2b068fc378daa952ba7f163c4a11628f55a4df523b3ef9061070b908590610aa3565b60405180910390a361071f60008383610723565b5050565b505050565b80356001600160a01b03811681146103a957600080fd5b600060208284031215610750578081fd5b61075982610728565b9392505050565b60008060408385031215610772578081fd5b61077b83610728565b915061078960208401610728565b90509250929050565b6000806000606084860312156107a6578081fd5b6107af84610728565b92506107bd60208501610728565b9150604084013590509250925092565b600080604083850312156107df578182fd5b6107e883610728565b946020939093013593505050565b901515815260200190565b6000602080835283518082850152825b8181101561082d57858101830151858201604001528201610811565b8181111561083e5783604083870101525b50601f01601f1916929092016040019392505050565b60208082526023908201527f45524332303a207472616e7366657220746f20746865207a65726f206164647260408201526265737360e81b606082015260800190565b60208082526022908201527f45524332303a20617070726f766520746f20746865207a65726f206164647265604082015261737360f01b606082015260800190565b60208082526026908201527f45524332303a207472616e7366657220616d6f756e7420657863656564732062604082015265616c616e636560d01b606082015260800190565b6020808252601d908201527f4f6e6c79206d617374657220636f6e74726163742063616e206d696e74000000604082015260600190565b60208082526028908201527f45524332303a207472616e7366657220616d6f756e74206578636565647320616040820152676c6c6f77616e636560c01b606082015260800190565b60208082526025908201527f45524332303a207472616e736665722066726f6d20746865207a65726f206164604082015264647265737360d81b606082015260800190565b60208082526024908201527f45524332303a20617070726f76652066726f6d20746865207a65726f206164646040820152637265737360e01b606082015260800190565b60208082526025908201527f45524332303a2064656372656173656420616c6c6f77616e63652062656c6f77604082015264207a65726f60d81b606082015260800190565b6020808252601f908201527f45524332303a206d696e7420746f20746865207a65726f206164647265737300604082015260600190565b90815260200190565b60ff91909116815260200190565b60008219821115610ad957634e487b7160e01b81526011600452602481fd5b500190565b600281046001821680610af257607f821691505b60208210811415610b1357634e487b7160e01b600052602260045260246000fd5b5091905056fea2646970667358221220bbc641e511ae5080687e38a5e8e81686d0d5e511d031efe9a5057fe2a61d99c064736f6c63430008000033",
  "devdoc": {
    "kind": "dev",
    "methods": {
      "approve(address,uint256)": {
        "details": "See {IERC721-approve}."
      },
      "balanceOf(address)": {
        "details": "See {IERC721-balanceOf}."
      },
      "getApproved(uint256)": {
        "details": "See {IERC721-getApproved}."
      },
      "isApprovedForAll(address,address)": {
        "details": "See {IERC721-isApprovedForAll}."
      },
      "name()": {
        "details": "See {IERC721Metadata-name}."
      },
      "ownerOf(uint256)": {
        "details": "See {IERC721-ownerOf}."
      },
      "safeTransferFrom(address,address,uint256)": {
        "details": "See {IERC721-safeTransferFrom}."
      },
      "safeTransferFrom(address,address,uint256,bytes)": {
        "details": "See {IERC721-safeTransferFrom}."
      },
      "setApprovalForAll(address,bool)": {
        "details": "See {IERC721-setApprovalForAll}."
      },
      "supportsInterface(bytes4)": {
        "details": "See {IERC165-supportsInterface}."
      },
      "symbol()": {
        "details": "See {IERC721Metadata-symbol}."
      },
      "tokenURI(uint256)": {
        "details": "See {IERC721Metadata-tokenURI}."
      },
      "transferFrom(address,address,uint256)": {
        "details": "See {IERC721-transferFrom}."
      }
    },
    "version": 1
  },
  "userdoc": {
    "kind": "user",
    "methods": {},
    "version": 1
  },
  "storageLayout": {
    "storage": [
      {
        "astId": 674,
        "contract": "contracts/Referendum.sol:Referendum",
        "label": "_name",
        "offset": 0,
        "slot": "0",
        "type": "t_string_storage"
      },
      {
        "astId": 676,
        "contract": "contracts/Referendum.sol:Referendum",
        "label": "_symbol",
        "offset": 0,
        "slot": "1",
        "type": "t_string_storage"
      },
      {
        "astId": 680,
        "contract": "contracts/Referendum.sol:Referendum",
        "label": "_owners",
        "offset": 0,
        "slot": "2",
        "type": "t_mapping(t_uint256,t_address)"
      },
      {
        "astId": 684,
        "contract": "contracts/Referendum.sol:Referendum",
        "label": "_balances",
        "offset": 0,
        "slot": "3",
        "type": "t_mapping(t_address,t_uint256)"
      },
      {
        "astId": 688,
        "contract": "contracts/Referendum.sol:Referendum",
        "label": "_tokenApprovals",
        "offset": 0,
        "slot": "4",
        "type": "t_mapping(t_uint256,t_address)"
      },
      {
        "astId": 694,
        "contract": "contracts/Referendum.sol:Referendum",
        "label": "_operatorApprovals",
        "offset": 0,
        "slot": "5",
        "type": "t_mapping(t_address,t_mapping(t_address,t_bool))"
      },
      {
        "astId": 1626,
        "contract": "contracts/Referendum.sol:Referendum",
        "label": "_tokenURIs",
        "offset": 0,
        "slot": "6",
        "type": "t_mapping(t_uint256,t_string_storage)"
      },
      {
        "astId": 2378,
        "contract": "contracts/Referendum.sol:Referendum",
        "label": "owner",
        "offset": 0,
        "slot": "7",
        "type": "t_address"
      },
      {
        "astId": 2380,
        "contract": "contracts/Referendum.sol:Referendum",
        "label": "totalMinted",
        "offset": 0,
        "slot": "8",
        "type": "t_uint256"
      },
      {
        "astId": 2382,
        "contract": "contracts/Referendum.sol:Referendum",
        "label": "startTime",
        "offset": 0,
        "slot": "9",
        "type": "t_uint256"
      },
      {
        "astId": 2384,
        "contract": "contracts/Referendum.sol:Referendum",
        "label": "endTime",
        "offset": 0,
        "slot": "10",
        "type": "t_uint256"
      },
      {
        "astId": 2387,
        "contract": "contracts/Referendum.sol:Referendum",
        "label": "democracyToken",
        "offset": 0,
        "slot": "11",
        "type": "t_contract(IDemocracyToken)2374"
      },
      {
        "astId": 2389,
        "contract": "contracts/Referendum.sol:Referendum",
        "label": "isDemocracyTokenMinted",
        "offset": 20,
        "slot": "11",
        "type": "t_bool"
      },
      {
        "astId": 2393,
        "contract": "contracts/Referendum.sol:Referendum",
        "label": "_isMinted",
        "offset": 0,
        "slot": "12",
        "type": "t_mapping(t_address,t_bool)"
      }
    ],
    "types": {
      "t_address": {
        "encoding": "inplace",
        "label": "address",
        "numberOfBytes": "20"
      },
      "t_bool": {
        "encoding": "inplace",
        "label": "bool",
        "numberOfBytes": "1"
      },
      "t_contract(IDemocracyToken)2374": {
        "encoding": "inplace",
        "label": "contract IDemocracyToken",
        "numberOfBytes": "20"
      },
      "t_mapping(t_address,t_bool)": {
        "encoding": "mapping",
        "key": "t_address",
        "label": "mapping(address => bool)",
        "numberOfBytes": "32",
        "value": "t_bool"
      },
      "t_mapping(t_address,t_mapping(t_address,t_bool))": {
        "encoding": "mapping",
        "key": "t_address",
        "label": "mapping(address => mapping(address => bool))",
        "numberOfBytes": "32",
        "value": "t_mapping(t_address,t_bool)"
      },
      "t_mapping(t_address,t_uint256)": {
        "encoding": "mapping",
        "key": "t_address",
        "label": "mapping(address => uint256)",
        "numberOfBytes": "32",
        "value": "t_uint256"
      },
      "t_mapping(t_uint256,t_address)": {
        "encoding": "mapping",
        "key": "t_uint256",
        "label": "mapping(uint256 => address)",
        "numberOfBytes": "32",
        "value": "t_address"
      },
      "t_mapping(t_uint256,t_string_storage)": {
        "encoding": "mapping",
        "key": "t_uint256",
        "label": "mapping(uint256 => string)",
        "numberOfBytes": "32",
        "value": "t_string_storage"
      },
      "t_string_storage": {
        "encoding": "bytes",
        "label": "string",
        "numberOfBytes": "32"
      },
      "t_uint256": {
        "encoding": "inplace",
        "label": "uint256",
        "numberOfBytes": "32"
      }
    }
  }
}